{
  "_format": "hh-sol-artifact-1",
  "contractName": "PlatziFood",
  "sourceName": "contracts/PlatziFood.sol",
  "abi": [
    {
      "inputs": [],
      "stateMutability": "nonpayable",
      "type": "constructor"
    },
    {
      "inputs": [
        {
          "internalType": "string",
          "name": "foodUrl",
          "type": "string"
        },
        {
          "internalType": "string",
          "name": "foodName",
          "type": "string"
        },
        {
          "internalType": "string",
          "name": "originCountry",
          "type": "string"
        }
      ],
      "name": "addPlatziFood",
      "outputs": [],
      "stateMutability": "nonpayable",
      "type": "function"
    },
    {
      "inputs": [],
      "name": "getAllPlatziFoods",
      "outputs": [
        {
          "components": [
            {
              "internalType": "address",
              "name": "owner",
              "type": "address"
            },
            {
              "internalType": "string",
              "name": "url",
              "type": "string"
            },
            {
              "internalType": "string",
              "name": "foodName",
              "type": "string"
            },
            {
              "internalType": "string",
              "name": "originCountry",
              "type": "string"
            }
          ],
          "internalType": "struct PlatziFood.PlatziFoodItem[]",
          "name": "",
          "type": "tuple[]"
        }
      ],
      "stateMutability": "view",
      "type": "function"
    },
    {
      "inputs": [],
      "name": "getAllPlatziFoodsByOwner",
      "outputs": [
        {
          "components": [
            {
              "internalType": "address",
              "name": "owner",
              "type": "address"
            },
            {
              "internalType": "string",
              "name": "url",
              "type": "string"
            },
            {
              "internalType": "string",
              "name": "foodName",
              "type": "string"
            },
            {
              "internalType": "string",
              "name": "originCountry",
              "type": "string"
            }
          ],
          "internalType": "struct PlatziFood.PlatziFoodItem[]",
          "name": "",
          "type": "tuple[]"
        }
      ],
      "stateMutability": "view",
      "type": "function"
    }
  ],
  "bytecode": "0x608060405234801561001057600080fd5b5061104a806100206000396000f3fe608060405234801561001057600080fd5b50600436106100415760003560e01c8063180c450f146100465780631e7c0813146100625780634031447e14610080575b600080fd5b610060600480360381019061005b9190610996565b61009e565b005b61006a610190565b6040516100779190610c30565b60405180910390f35b6100886103fb565b6040516100959190610c30565b60405180910390f35b600060405180608001604052803373ffffffffffffffffffffffffffffffffffffffff16815260200185815260200184815260200183815250908060018154018082558091505060019003906000526020600020906004020160009091909190915060008201518160000160006101000a81548173ffffffffffffffffffffffffffffffffffffffff021916908373ffffffffffffffffffffffffffffffffffffffff160217905550602082015181600101908161015c9190610e68565b5060408201518160020190816101729190610e68565b5060608201518160030190816101889190610e68565b505050505050565b60606000805480602002602001604051908101604052809291908181526020016000905b828210156103f257838290600052602060002090600402016040518060800160405290816000820160009054906101000a900473ffffffffffffffffffffffffffffffffffffffff1673ffffffffffffffffffffffffffffffffffffffff1673ffffffffffffffffffffffffffffffffffffffff16815260200160018201805461023d90610c81565b80601f016020809104026020016040519081016040528092919081815260200182805461026990610c81565b80156102b65780601f1061028b576101008083540402835291602001916102b6565b820191906000526020600020905b81548152906001019060200180831161029957829003601f168201915b505050505081526020016002820180546102cf90610c81565b80601f01602080910402602001604051908101604052809291908181526020018280546102fb90610c81565b80156103485780601f1061031d57610100808354040283529160200191610348565b820191906000526020600020905b81548152906001019060200180831161032b57829003601f168201915b5050505050815260200160038201805461036190610c81565b80601f016020809104026020016040519081016040528092919081815260200182805461038d90610c81565b80156103da5780601f106103af576101008083540402835291602001916103da565b820191906000526020600020905b8154815290600101906020018083116103bd57829003601f168201915b505050505081525050815260200190600101906101b4565b50505050905090565b60606000805b6000805490508110156104a9573373ffffffffffffffffffffffffffffffffffffffff166000828154811061043957610438610f3a565b5b906000526020600020906004020160000160009054906101000a900473ffffffffffffffffffffffffffffffffffffffff1673ffffffffffffffffffffffffffffffffffffffff1603610496576001826104939190610f98565b91505b80806104a190610fcc565b915050610401565b5060008167ffffffffffffffff8111156104c6576104c561086b565b5b6040519080825280602002602001820160405280156104ff57816020015b6104ec6107fe565b8152602001906001900390816104e45790505b50905060005b6000805490508110156107f5573373ffffffffffffffffffffffffffffffffffffffff166000828154811061053d5761053c610f3a565b5b906000526020600020906004020160000160009054906101000a900473ffffffffffffffffffffffffffffffffffffffff1673ffffffffffffffffffffffffffffffffffffffff16036107e2576000818154811061059e5761059d610f3a565b5b90600052602060002090600402016040518060800160405290816000820160009054906101000a900473ffffffffffffffffffffffffffffffffffffffff1673ffffffffffffffffffffffffffffffffffffffff1673ffffffffffffffffffffffffffffffffffffffff16815260200160018201805461061d90610c81565b80601f016020809104026020016040519081016040528092919081815260200182805461064990610c81565b80156106965780601f1061066b57610100808354040283529160200191610696565b820191906000526020600020905b81548152906001019060200180831161067957829003601f168201915b505050505081526020016002820180546106af90610c81565b80601f01602080910402602001604051908101604052809291908181526020018280546106db90610c81565b80156107285780601f106106fd57610100808354040283529160200191610728565b820191906000526020600020905b81548152906001019060200180831161070b57829003601f168201915b5050505050815260200160038201805461074190610c81565b80601f016020809104026020016040519081016040528092919081815260200182805461076d90610c81565b80156107ba5780601f1061078f576101008083540402835291602001916107ba565b820191906000526020600020905b81548152906001019060200180831161079d57829003601f168201915b5050505050815250508282815181106107d6576107d5610f3a565b5b60200260200101819052505b80806107ed90610fcc565b915050610505565b50809250505090565b6040518060800160405280600073ffffffffffffffffffffffffffffffffffffffff1681526020016060815260200160608152602001606081525090565b6000604051905090565b600080fd5b600080fd5b600080fd5b600080fd5b6000601f19601f8301169050919050565b7f4e487b7100000000000000000000000000000000000000000000000000000000600052604160045260246000fd5b6108a38261085a565b810181811067ffffffffffffffff821117156108c2576108c161086b565b5b80604052505050565b60006108d561083c565b90506108e1828261089a565b919050565b600067ffffffffffffffff8211156109015761090061086b565b5b61090a8261085a565b9050602081019050919050565b82818337600083830152505050565b6000610939610934846108e6565b6108cb565b90508281526020810184848401111561095557610954610855565b5b610960848285610917565b509392505050565b600082601f83011261097d5761097c610850565b5b813561098d848260208601610926565b91505092915050565b6000806000606084860312156109af576109ae610846565b5b600084013567ffffffffffffffff8111156109cd576109cc61084b565b5b6109d986828701610968565b935050602084013567ffffffffffffffff8111156109fa576109f961084b565b5b610a0686828701610968565b925050604084013567ffffffffffffffff811115610a2757610a2661084b565b5b610a3386828701610968565b9150509250925092565b600081519050919050565b600082825260208201905092915050565b6000819050602082019050919050565b600073ffffffffffffffffffffffffffffffffffffffff82169050919050565b6000610a9482610a69565b9050919050565b610aa481610a89565b82525050565b600081519050919050565b600082825260208201905092915050565b60005b83811015610ae4578082015181840152602081019050610ac9565b60008484015250505050565b6000610afb82610aaa565b610b058185610ab5565b9350610b15818560208601610ac6565b610b1e8161085a565b840191505092915050565b6000608083016000830151610b416000860182610a9b565b5060208301518482036020860152610b598282610af0565b91505060408301518482036040860152610b738282610af0565b91505060608301518482036060860152610b8d8282610af0565b9150508091505092915050565b6000610ba68383610b29565b905092915050565b6000602082019050919050565b6000610bc682610a3d565b610bd08185610a48565b935083602082028501610be285610a59565b8060005b85811015610c1e5784840389528151610bff8582610b9a565b9450610c0a83610bae565b925060208a01995050600181019050610be6565b50829750879550505050505092915050565b60006020820190508181036000830152610c4a8184610bbb565b905092915050565b7f4e487b7100000000000000000000000000000000000000000000000000000000600052602260045260246000fd5b60006002820490506001821680610c9957607f821691505b602082108103610cac57610cab610c52565b5b50919050565b60008190508160005260206000209050919050565b60006020601f8301049050919050565b600082821b905092915050565b600060088302610d147fffffffffffffffffffffffffffffffffffffffffffffffffffffffffffffffff82610cd7565b610d1e8683610cd7565b95508019841693508086168417925050509392505050565b6000819050919050565b6000819050919050565b6000610d65610d60610d5b84610d36565b610d40565b610d36565b9050919050565b6000819050919050565b610d7f83610d4a565b610d93610d8b82610d6c565b848454610ce4565b825550505050565b600090565b610da8610d9b565b610db3818484610d76565b505050565b5b81811015610dd757610dcc600082610da0565b600181019050610db9565b5050565b601f821115610e1c57610ded81610cb2565b610df684610cc7565b81016020851015610e05578190505b610e19610e1185610cc7565b830182610db8565b50505b505050565b600082821c905092915050565b6000610e3f60001984600802610e21565b1980831691505092915050565b6000610e588383610e2e565b9150826002028217905092915050565b610e7182610aaa565b67ffffffffffffffff811115610e8a57610e8961086b565b5b610e948254610c81565b610e9f828285610ddb565b600060209050601f831160018114610ed25760008415610ec0578287015190505b610eca8582610e4c565b865550610f32565b601f198416610ee086610cb2565b60005b82811015610f0857848901518255600182019150602085019450602081019050610ee3565b86831015610f255784890151610f21601f891682610e2e565b8355505b6001600288020188555050505b505050505050565b7f4e487b7100000000000000000000000000000000000000000000000000000000600052603260045260246000fd5b7f4e487b7100000000000000000000000000000000000000000000000000000000600052601160045260246000fd5b6000610fa382610d36565b9150610fae83610d36565b9250828201905080821115610fc657610fc5610f69565b5b92915050565b6000610fd782610d36565b91507fffffffffffffffffffffffffffffffffffffffffffffffffffffffffffffffff820361100957611008610f69565b5b60018201905091905056fea264697066735822122037dfb4eab42a511639cba08116c92a953cd55fdba03e57a0527fc18c4f9c821d64736f6c63430008120033",
  "linkReferences": {},
  "deployedLinkReferences": {}
}